:060000000A128A110C280F
:10000800FE00030EF5000A08F6000A128A111628E7
:100018000A128A110F28F701F801F90183010A125F
:100028008A115928831203138C1D1B281C28522857
:100038000A128A1191200A128A1170087104031990
:10004800262827282D280A128A11F3200A128A1135
:1000580045288316031314193228332839280A121D
:100068008A1179200A128A11FA0083160313141DC3
:100078003E283F2845287A080A128A11DB200A12EE
:100088008A11831203138D1D4A284B2851280830E2
:1000980088001308F9008D1114168C1176088A004F
:1000A800750E8300FE0E7E0E09000A128A11CC20FE
:1000B8000A128A110A128A11BB200A128A11A03068
:1000C8000A128A11A7200A128A110A128A11E82034
:1000D8000A128A118312031305080F39FA007A08E5
:1000E80088006E280A128A110C2883160313941AA2
:1000F8007E287F2883288312031313081416831677
:100108000313941E882889288D2883120313130843
:10011800F0008312141670080800831203131412D7
:10012800F401F40A141B99289A289F28941B9D28E7
:100138009E289F28F4017408F200F3017208F00069
:100148007308F100080083120313A0008316031339
:10015800871507168030940083120313200883162E
:100168000313930036308312031394000800F03011
:1001780083120313A00020088316031788050F3085
:1001880083120313A00020088316031385040800B4
:10019800F03083120313A000200883160313880588
:1001A800F03083120313A000200888050800F0002F
:1001B800700883120313930014168316031314187C
:1001C800E628E728E12808008B170B178316031386
:1001D8008C158D15831203138C118D110800831251
:1001E800031314121308141394131416941108000B
:08400000FF3FFF3FFF3FFF3FC0
:04400E00F120FF3F5F
:00000001FF
