:060000000A128A11122809
:10000800FE00030E83120313D4000408D5000A0867
:10001800D6007F08D7000A168A11682E0A128A119C
:10002800152883136930FD001F30FE007030FF0073
:10003800623084000A168A114B210A128A11203074
:10004800840051300A168A1587270A128A11FA0184
:10005800FB01FC01FD0183010A128A1133280A16EB
:100068008A1569270A128A110A168A1135210A1275
:100078008A110A168A11FC200A128A110A168A1194
:1000880086230A128A110A168A1107210A128A116E
:1000980001300A168A155D270A128A1101300A16DC
:1000A8008A1563270A128A1183120313D801D9010A
:1000B800D90A08300A168A1186210A128A1183126F
:1000C8000313D8010230D90019300A168A11862183
:1000D8000A128A11023083160313A2000430A10009
:1000E800B930A000A00B7628A10B7628A20B7628A1
:1000F8007D284F3083120313D9004E30DA004D307B
:10010800DB0050300A168A1103260A128A111A30A7
:1001180083160313A100F730A000A00B9128A10BB0
:100128009128962883120313DD01DD0A01300A168F
:100138008A1172220A128A11831203135008613E2F
:10014800840083130008DD000030031D8030DE00CA
:100158000A128A1500200A128A111A30831603130C
:10016800A100F730A000A00BB728A10BB728BC2826
:10017800831203134F0883160313A00004300310DF
:10018800A00CFF3E031DC32820080739303E831208
:100198000313C0004F080F39303EC100C201DD0112
:1001A800DD0A05300A168A1172220A128A114030B5
:1001B80083120313DD000030DE000A128A150020C6
:1001C8000A128A111A3083160313A100F730A0000F
:1001D800A00BEC28A10BEC28F128831203134E087E
:1001E80083160313A00004300310A00CFF3E031D68
:1001F800F82820080739303E83120313C0004E0840
:100208000F39303EC100C201DD01DD0A08300A168F
:100218008A1172220A128A11403083120313DD00F8
:100228000030DE000A128A1500200A128A111A30DC
:1002380083160313A100F730A000A00B2129A10BFE
:1002480021292629831203134D0883160313A000BE
:1002580004300310A00CFF3E031D2D292008073988
:10026800303E83120313C0004D080F39303EC100E1
:10027800C201DD01DD0A0B300A168A1172220A1248
:100288008A11403083120313DD000030DE000A12A9
:100298008A1500200A128A114F3083120313D900DD
:1002A8004E30DA0050300A168A1153250A128A1184
:1002B8001A3083160313A100F730A000A00B62299F
:1002C800A10B62296729831203134E0883160313AF
:1002D800A00004300310A00CFF3E031D6E29200867
:1002E8000739303E83120313C0004E080F39303EE1
:1002F800C100C2010230DD0001300A168A117222E3
:100308000A128A11403083120313DD000030DE0028
:100318000A128A1500200A128A111A30831603134A
:10032800A100F730A000A00B9729A10B97299C29C1
:10033800023083120313DD0003300A168A11722279
:100348000A128A11DD3083120313DD008030DE00CB
:100358000A128A1500200A128A11831203134F0801
:1003680083160313A00004300310A00CFF3E031DE6
:10037800B82920080739303E83120313C0004F08FC
:100388000F39303EC100C2010230DD0004300A16C8
:100398008A1172220A128A11403083120313DD0077
:1003A8000030DE000A128A1500200A128A111A305B
:1003B80083160313A100F730A000A00BE129A10BBD
:1003C800E129E629023083120313DD0006300A16FC
:1003D8008A1172220A128A11DD3083120313DD009A
:1003E8008030DE000A128A1500200A128A11831250
:1003F8000313500883160313A00004300310A00C45
:10040800FF3E031D022A20080739303E83120313DA
:10041800C00050080F39303EC100C2010230DD0073
:1004280007300A168A1172220A128A114030831282
:100438000313DD000030DE000A128A1500200A12BC
:100448008A111A3083160313A100F730A000A00BFD
:100458002B2AA10B2B2A302A0A168A1549270A1299
:100468008A11003A0319392A3A2AB22B4B308312DF
:100478000313D800D901D90A4C300A168A11D6219B
:100488000A128A11831203134C084E06031D4D2AC3
:100498004E2AB22B4B084F06031D532A542AB22B5F
:1004A80083160313A301A30A07302302031C5D2A42
:1004B8005E2A5F2A542B023083160313A2000430ED
:1004C800A100B930A000A00B672AA10B672AA20BD4
:1004D800672A6E2A0A168A1123210A128A11023003
:1004E80083160313A2000430A100B930A000A00BAA
:1004F8007B2AA10B7B2AA20B7B2A822A8312031355
:10050800DD01DD0A01300A168A1172220A128A11E7
:10051800A43083120313DD008030DE000A128A152E
:1005280000200A128A1101308312031388004F0831
:10053800BC003C080A168A114D230A128A1183123C
:100548000313B80038080A168A114D230A128A11B3
:1005580083120313BB004F30D9004E30DA005030FD
:100568000A168A1153250A128A11053083160313B5
:10057800A2000F30A100F030A000A00BC12AA10BEF
:10058800C12AA20BC12A0000831203134F083B069D
:10059800031DCF2AD02AAF2A023083160313A200E4
:1005A8000430A100B930A000A00BD82AA10BD82A8A
:1005B800A20BD82ADF2A0A168A1123210A128A11C5
:1005C800023083160313A2000430A100B930A00042
:1005D800A00BEC2AA10BEC2AA20BEC2AF32A83121B
:1005E8000313DD01DD0A01300A168A1172220A128C
:1005F8008A11313083120313DD008030DE000A12C5
:100608008A1500200A128A118312031388014F08E1
:10061800BC003C08BB0083160313A4010630240267
:10062800031C172B182B192B2B2B831203133B0896
:100638000A168A114D230A128A1183120313BB006A
:10064800013083160313A0002008A407122B4F3093
:100658008312D9004E30DA0050300A168A11532519
:100668000A128A11053083160313A2000F30A10065
:10067800F030A000A00B3E2BA10B3E2BA20B3E2B73
:100688000000831203134F083B06031D4C2B4D2B10
:100698002B2B013083160313A0002008A307582A28
:1006A800023083160313A2000430A100B930A00061
:1006B800A00B5C2BA10B5C2BA20B5C2B632B0A16EB
:1006C8008A1123210A128A11023083160313A20009
:1006D8000430A100B930A000A00B702BA10B702B27
:1006E800A20B702B772B83120313DD01DD0A013077
:1006F8000A168A1172220A128A1101308312031310
:10070800DD008030DE000A128A1500200A128A11E4
:10071800831203138801153083160313A2004B308C
:10072800A100BD30A000A00B972BA10B972BA20B0B
:10073800972B9E2B0A168A1123210A128A1102303E
:1007480083160313A2000430A100B930A000A00B47
:10075800AB2BA10BAB2BA20BAB2BB22B0A168A151A
:100768004D270A128A11003A0319BB2BBC2B7D288E
:10077800493083120313D8000230D9004A300A16D0
:100788008A11D6210A128A11831203134A084E06C7
:10079800031DCF2BD02B7D2849084F06031DD52BD1
:1007A800D62B7D2883160313A501A50A0730250239
:1007B800031CDF2BE02BE12BD62C0230831603130E
:1007C800A2000430A100B930A000A00BE92BA10BB6
:1007D800E92BA20BE92BF02B0A168A1123210A1206
:1007E8008A11023083160313A2000430A100B93025
:1007F800A000A00BFD2BA10BFD2BA20BFD2B042CA5
:1008080083120313DD01DD0A01300A168A117222F0
:100818000A128A11A43083120313DD008030DE002F
:100828000A128A1500200A128A1101308312031352
:1008380088004F08BC003C080A168A114D230A128A
:100848008A1183120313B80038080A168A114D2337
:100858000A128A1183120313BB004F30D9004E309D
:10086800DA0050300A168A1153250A128A11053007
:1008780083160313A2000F30A100F030A000A00BD4
:10088800432CA10B432CA20B432C0000831203130F
:100898004F083B06031D512C522C312C0230831675
:1008A8000313A2000430A100B930A000A00B5A2CF9
:1008B800A10B5A2CA20B5A2C612C0A168A1123213F
:1008C8000A128A11023083160313A2000430A10011
:1008D800B930A000A00B6E2CA10B6E2CA20B6E2CB5
:1008E800752C83120313DD01DD0A01300A168A1103
:1008F80072220A128A11313083120313DD0080300C
:10090800DE000A128A1500200A128A1183120313C4
:1009180088014F08BC003C08BB0083160313A601DE
:1009280006302602031C992C9A2C9B2CAD2C831282
:1009380003133B080A168A114D230A128A118312DF
:100948000313BB00013083160313A0002008A60779
:10095800942C4F308312D9004E30DA0050300A16EA
:100968008A1153250A128A11053083160313A2002F
:100978000F30A100F030A000A00BC02CA10BC02CA0
:10098800A20BC02C0000831203134F083B06031D63
:10099800CE2CCF2CAD2C013083160313A0002008D9
:1009A800A507DA2B023083160313A2000430A10036
:1009B800B930A000A00BDE2CA10BDE2CA20BDE2C84
:1009C800E52C0A168A1123210A128A11023083168D
:1009D8000313A2000430A100B930A000A00BF22C30
:1009E800A10BF22CA20BF22CF92C83120313DD01BC
:1009F800DD0A01300A168A1172220A128A110130A0
:100A080083120313DD008030DE000A128A150020ED
:100A18000A128A11831203138801153083160313EF
:100A2800A2004B30A100BD30A000A00B192DA10BD6
:100A3800192DA20B192D202D0A168A1123210A120D
:100A48008A116E280A128A1112280A128A15AD2FE5
:100A58001A3083120313D200F730D100D10B322D94
:100A6800D20B322D372D0A168A1113210A128A1138
:100A78001A3083120313D200F730D100D10B422D64
:100A8800D20B422D472DF501F50A01300A168A11BD
:100A980042220A128A116E2D7530F5008030F60058
:100AA8000A168A111C220A128A11832D2230F50097
:100AB8008030F6000A168A111C220A128A11832D28
:100AC8001230F5008030F6000A168A111C220A122C
:100AD8008A11832D831203133508D100D2015208DD
:100AE800003A0319782D832D5108003A0319502D27
:100AF800013A03195A2D033A0319642D832D7C30CA
:100B0800F1004830F2007D300A168A1106250A12D3
:100B18008A11831203134808D10004300310D10C42
:100B2800FF3E031D922D51080739303EBD0048088D
:100B38000F39303EBE00BF010230F50001300A1601
:100B48008A1142220A128A113D30F5000030F6005F
:100B58000A168A111C220A128A110D3083120313F5
:100B6800D200FB30D100D10BB72DD20BB72D0230FC
:100B7800F50003300A168A1142220A128A11DD3062
:100B8800F5008030F6000A168A111C220A128A1112
:100B98007C0883120313D10004300310D10CFF3EEC
:100BA800031DD12D51080739303EBD007C080F398F
:100BB800303EBE00BF010230F50004300A168A112B
:100BC80042220A128A113D30F5000030F6000A165A
:100BD8008A111C220A128A110D3083120313D200C3
:100BE800FB30D100D10BF62DD20BF62D0230F500DB
:100BF80006300A168A1142220A128A11DD30F500DF
:100C08008030F6000A168A111C220A128A117D0801
:100C180083120313D10004300310D10CFF3E031DCF
:100C2800102E51080739303EBD007D080F39303E7F
:100C3800BE00BF010230F50007300A168A114222B1
:100C48000A128A113D30F5000030F6000A168A11A2
:100C58001C220A128A110D3083120313D200FB30B2
:100C6800D100D10B352ED20B352E83120313350844
:100C7800031D3F2E402EE52E051C432E442E952E97
:100C88004808D10004300310D10CFF3E031D472E45
:100C980051080F39AE0048080F39FA000130D10069
:100CA8005108FA070A307A02031C5B2E5C2E6F2E5D
:100CB800FA010130D1005108AE0702302E06031D9B
:100CC800662E672E6F2E04307A02031C6C2E6D2E52
:100CD8006F2EAE01FA010F307A05D1002E08D2002E
:100CE80003300310D20DFF3E031D752E0310520D65
:100CF8005104C8000230F10048080A168A11B821C8
:100D08000A128A11043083120313D3008E30D200E2
:100D18001130D100D10B8E2ED20B8E2ED30B8E2EEE
:100D2800952E83120313851C9A2E9B2EE52E4808B8
:100D3800D10004300310D10CFF3E031D9E2E510834
:100D48000F39AE0048080F39FA007A08031DAD2E96
:100D5800AE2EBD2E0930FA002E080319B42EB52E7A
:100D6800B82E0130AE02BF2E0230AE000330FA00BA
:100D7800BF2E0130FA020F307A05D1002E08D200BA
:100D880003300310D20DFF3E031DC52E0310520D74
:100D98005104C8000230F10048080A168A11B82127
:100DA8000A128A11043083120313D3008E30D20042
:100DB8001130D100D10BDE2ED20BDE2ED30BDE2E5E
:100DC800E52E8312031335030319ED2E0A128A1137
:100DD800F02E0A128A11F62E02303506031DF52E62
:100DE800F62EAE2F3503031DFA2EFB2E002FB4016D
:100DF800B40A7C08FB00092F02303506031D052FB5
:100E0800062F092FB4017D08FB00051C0C2F0D2FA0
:100E18005E2F7B08D10004300310D10CFF3E031D68
:100E2800102F51080F39AE007B080F39FA00013036
:100E3800D1005108FA070A307A02031C242F252F03
:100E4800382FFA010130D1005108AE0705302E06BF
:100E5800031D2F2F302F382F0A307A02031C352F0D
:100E6800362F382FAE01FA010F307A05D1002E083F
:100E7800D20003300310D20DFF3E031D3E2F031096
:100E8800520D5104FB003408F1007B080A168A1140
:100E9800B8210A128A11043083120313D3008E304A
:100EA800D2001130D100D10B572FD20B572FD30BB3
:100EB800572F5E2F83120313851C632F642FAE2FC9
:100EC8007B08D10004300310D10CFF3E031D672FAF
:100ED80051080F39AE007B080F39FA007A08031D54
:100EE800762F772F862F0930FA002E0803197D2FC9
:100EF8007E2F812F0130AE02882F0530AE000930D9
:100F0800FA00882F0130FA020F307A05D1002E0836
:100F1800D20003300310D20DFF3E031D8E2F0310A5
:100F2800520D5104FB003408F1007B080A168A119F
:100F3800B8210A128A11043083120313D3008E30A9
:100F4800D2001130D100D10BA72FD20BA72FD30B72
:100F5800A72FAE2F83120313061CB32FB42FB72F5E
:100F68000A128A159C2F051DBA2FBD2F0A128A1145
:100F7800832D0230B6000130D1005108B507033087
:100F88003502031CC82FC92FCA2FB501053083129B
:100F98000313D3000F30D200F030D100D10BD22F81
:100FA800D20BD22FD30BD22F0000B42F1A308312BA
:100FB8000313D200F730D100D10BE02FD20BE02F72
:100FC800E52F0A168A1113210A128A111A30831280
:100FD8000313D200F730D100D10BF02FD20BF02F32
:100FE800F52FF501F50A01300A168A1142220A1274
:100FF8008A110A128A156C2817285E08FF005D08F6
:1010080084000A168A1100200A128A150A168A1103
:10101800BF240A128A15013083120313DD0703184F
:10102800DE0A0030DE07831203135E08FF005D0846
:1010380084000A168A1100200A128A15003A031D34
:1010480026282728012808000330B4006830F50056
:101058008030F6000A168A111C220A128A15842882
:101068000430B4000930B300B2010330B100B0015C
:10107800AF01AF0A8E30F5008030F6000A168A11EB
:101088001C220A128A1584280530B4000930B300DE
:10109800B101B10A0230AF009930F5008030F60096
:1010A8000A168A111C220A128A1584280630B400EE
:1010B8000930B3000930B1000930AF008230F500C3
:1010C8008030F6000A168A111C220A128A15842812
:1010D800831203133508D100D2015208003A0319CC
:1010E800762884285108003A03192828013A031958
:1010F8003428033A03194828013A03195A2884283E
:101108007C30F1004830F2004730F3007D300A1699
:101118008A11A8250A128A150230F50001300A162C
:101128008A1142220A128A157D08613E84008313BF
:101138000008F5000030031D8030F6000A168A11F9
:101148001C220A128A151A3083120313D200F730B0
:10115800D100D10BAD28D20BAD28B2287C08831260
:101168000313D10004300310D10CFF3E031DB72830
:1011780051080739303EBD007C080F39303EBE00AB
:10118800BF010230F50005300A168A1142220A1200
:101198008A153D30F5000030F6000A168A111C2227
:1011A8000A128A151A3083120313D200F730D100BD
:1011B800D10BDC28D20BDC28E12883120313480862
:1011C800D10004300310D10CFF3E031DE62851085E
:1011D8000739303EBD0048080F39303EBE00BF0118
:1011E8000230F50008300A168A1142220A128A15BE
:1011F8003D30F5000030F6000A168A111C220A124A
:101208008A151A3083120313D200F730D100D10B9C
:101218000B29D20B0B291029831203134708D1007D
:1012280004300310D10CFF3E031D1529510807395E
:10123800303EBD0047080F39303EBE00BF010230C6
:10124800F5000B300A168A1142220A128A153D301F
:10125800F5000030F6000A168A111C220A128A15B7
:10126800831203133508031D3A293B29C329051C9A
:101278003E293F297F297D08D10004300310D10C75
:10128800FF3E031D422951080F39AE007D080F3972
:10129800FA000130D1005108FA0708307A02031C1D
:1012A800562957295929FA01FA0A0F307A05D10027
:1012B8002E08D20003300310D20DFF3E031D5F2914
:1012C8000310520D5104FD003408F1007D080A1680
:1012D8008A11B8210A128A15043083120313D30025
:1012E8008E30D2001130D100D10B7829D20B782959
:1012F800D30B78297F2983120313851C8429852918
:10130800C3297D08D10004300310D10CFF3E031D12
:10131800882951080F39AE007D080F39FA007A0381
:10132800031D972998299B290730FA009D29013028
:10133800FA020F307A05D1002E08D20003300310CC
:10134800D20DFF3E031DA3290310520D5104FD00C9
:101358003408F1007D080A168A11B8210A128A1584
:10136800043083120313D3008E30D2001130D10021
:10137800D10BBC29D20BBC29D30BBC29C32983129E
:10138800031335080319C929CA299A2A04303502D2
:101398000318CF29D0299A2A3503031DD429D52922
:1013A800D8297C08FB00E92902303506031DDD2910
:1013B800DE29E1294808FB00E92903303506031D29
:1013C800E629E729E9294708FB00051CEC29ED294E
:1013D8003F2A7B08D10004300310D10CFF3E031DC7
:1013E800F02951080F39AE007B080F39FA00013097
:1013F800D1005108FA077A0833020318042A052A8B
:101408000A2AFA010130D1005108AE072E08310628
:10141800031D0F2A102A192A7A082F020318152AE1
:10142800162A192AFA01FA0AAE010F307A05D100F4
:101438002E08D20003300310D20DFF3E031D1F2AD1
:101448000310520D5104FB003408F1007B080A1602
:101458008A11B8210A128A15043083120313D300A3
:101468008E30D2001130D100D10B382AD20B382A55
:10147800D30B382A3F2A83120313851C442A452A92
:101488009A2A7B08D10004300310D10CFF3E031DBB
:10149800482A51080F39AE007B080F39FA007A083C
:1014A8002F06031D582A592A632A2E08031D5D2A70
:1014B8005E2A632A3108AE002F08FA00742A7A08D7
:1014C800031D672A682A722A2E0803196C2A6D2AB6
:1014D800722A3308FA000130AE02742A0130FA0287
:1014E8000F307A05D1002E08D20003300310D20D38
:1014F800FF3E031D7A2A0310520D5104FB003408E5
:10150800F1007B080A168A11B8210A128A150430DC
:1015180083120313D3008E30D2001130D100D10BC7
:10152800932AD20B932AD30B932A9A2A8312031352
:10153800061C9F2AA02AA12A9C2F051DA42AA52A99
:1015480084280330B6000130D1005108B5070430B3
:101558003502031CB02AB32A0A128A11CA2F0A12AA
:101568008A11C92F1A3083120313D200F730D10021
:10157800D10BBC2AD20BBC2AC12A0A168A11132104
:101588000A128A151A3083120313D200F730D100D9
:10159800D10BCC2AD20BCC2AD12A023083120313C6
:1015A8003702031CD82AD92ADA2AB701F501F50A25
:1015B80001300A168A1142220A128A153B2C53302E
:1015C800F5008030F6000A168A111C220A128A15C4
:1015D8001A3083120313D200F730D100D10BF22A4C
:1015E800D20BF22AF72A0A168A1541270A128A15F7
:1015F800013A031D002B012B1E2B0230F500013090
:101608000A168A1142220A128A151A308312031303
:10161800D200F730D100D10B0F2BD20B0F2B142B8C
:10162800AF30F5008030F6000A168A111C220A1223
:101638008A153A2B0230F50001300A168A11422227
:101648000A128A151A3083120313D200F730D10018
:10165800D10B2C2BD20B2C2B312BB330F500803037
:10166800F6000A168A111C220A128A15831203131D
:1016780005183F2B402B442B851C432B442B5E2BFA
:101688000A168A1541270A128A15013A0A168A1576
:1016980051270A128A15043083120313D3008E309F
:1016A800D2001130D100D10B572BD20B572BD30BB3
:1016B800572B5E2B83120313051D632B642B762B8C
:1016C800B701B70A043083120313D3008E30D20057
:1016D8001130D100D10B6E2BD20B6E2BD30B6E2B8E
:1016E800752B9C2F061C792B7A2BF72A0430831232
:1016F8000313D3008E30D2001130D100D10B822BCE
:10170800D20B822BD30B822B892B05308312031328
:10171800B6009C2F6030F5008030F6000A168A115A
:101728001C220A128A151A3083120313D200F730CA
:10173800D100D10B9D2BD20B9D2BA22B0A168A15FB
:1017480045270A128A15013A031DAB2BAC2BC92B6E
:101758000230F50001300A168A1142220A128A154F
:101768001A3083120313D200F730D100D10BBA2BF1
:10177800D20BBA2BBF2BAF30F5008030F6000A161B
:101788008A111C220A128A15E52B0230F500013055
:101798000A168A1142220A128A151A308312031372
:1017A800D200F730D100D10BD72BD20BD72BDC2BA3
:1017B800B330F5008030F6000A168A111C220A128E
:1017C8008A15831203130518EA2BEB2BEF2B851CC4
:1017D800EE2BEF2B092C0A168A1545270A128A15B3
:1017E800013A0A168A1557270A128A1504308312F5
:1017F8000313D3008E30D2001130D100D10B022C4C
:10180800D20B022CD30B022C092C83120313051DB7
:101818000E2C0F2C202CB701043083120313D30095
:101828008E30D2001130D100D10B182CD20B182CCD
:10183800D30B182C1F2C372C061C232C242CA22B42
:10184800043083120313D3008E30D2001130D1003C
:10185800D10B2C2CD20B2C2CD30B2C2C332C05304D
:1018680083120313B60083120313B7019C2F83124C
:1018780003133708D100D2015208003A0319452C46
:101888009C2F5108003A0319E32A013A03198E2BB9
:101898009C2F1A3083120313D200F730D100D10BDA
:1018A800532CD20B532C582C0A168A1113210A12C6
:1018B8008A151A3083120313D200F730D100D10BE6
:1018C800632CD20B632C682CF501F50A01300A163B
:1018D8008A1142220A128A154E30F5008030F6002D
:1018E8000A168A111C220A128A151A308312031347
:1018F800D200F730D100D10B7F2CD20B7F2C842C57
:1019080083120313B7017C30F000F101F10A7D3036
:101918000A168A11F8210A128A157D088312031300
:10192800D10004300310D10CFF3E031D962C510842
:101938000739303EBD007D080F39303EBE00BF017B
:101948000230F50001300A168A1142220A128A155D
:101958003D30F5000030F6000A168A111C220A12E2
:101968008A150D3083120313D200FB30D100D10B3E
:10197800BB2CD20BBB2C0230F50003300A168A119F
:1019880042220A128A15DD30F5008030F6000A1668
:101998008A111C220A128A157C0883120313D100AB
:1019A80004300310D10CFF3E031DD52C5108073914
:1019B800303EBD007C080F39303EBE00BF0102300A
:1019C800F50004300A168A1142220A128A153D309F
:1019D800F5000030F6000A168A111C220A128A1530
:1019E8000D3083120313D200FB30D100D10BFA2C37
:1019F800D20BFA2C831203133708031D042D052D6F
:101A0800212D0230F5000E300A168A1142220A12E0
:101A18008A15BB30F5008030F6000A168A111C22A0
:101A28000A128A150D3083120313D200FB30D1003D
:101A3800D10B1C2DD20B1C2D332D0230F5000E308E
:101A48000A168A1142220A128A15B730F500803028
:101A5800F6000A168A111C220A128A15162D8312FC
:101A68000313051D382D392D4B2D3708013AB700C2
:101A7800043083120313D3008E30D2001130D1000A
:101A8800D10B442DD20B442DD30B442D4B2D831257
:101A98000313051C502D512D9B2D3708031D552D63
:101AA800562D792D7D08FB007B080A168A113924EA
:101AB8000A128A15FB007C08F000F101F10A7B0884
:101AC8000A168A119E210A128A15043083120313FA
:101AD800D3008E30D2001130D100D10B712DD20B32
:101AE800712DD30B712D782D9B2D7C08FB007B0865
:101AF8000A168A1114230A128A15FB007B08F000C3
:101B0800F101F10A7D080A168A119E210A128A1526
:101B1800043083120313D3008E30D2001130D10069
:101B2800D10B942DD20B942DD30B942D9B2D831276
:101B38000313851CA02DA12DD92D3708031DA52D14
:101B4800A62DC72D7D080A168A11A4220A128A1505
:101B5800FB007C08F000F101F10A7B080A168A11E3
:101B68009E210A128A15043083120313D3008E3083
:101B7800D2001130D100D10BBF2DD20BBF2DD30B0A
:101B8800BF2DC62DD92D7C080A168A11DC220A120F
:101B98008A15FB007B08F000F101F10A7D080A169E
:101BA8008A119E210A128A15B72D83120313061C67
:101BB800DE2DDF2D872C0630B60004308312031388
:101BC800D3008E30D2001130D100D10BE92DD20BC9
:101BD800E92DD30BE92DF02D9C2F1A308312031316
:101BE800D200F730D100D10BF72DD20BF72DFC2DF9
:101BF8000A168A1113210A128A151A30831203133E
:101C0800D200F730D100D10B072ED20B072E0C2EA5
:101C1800F501F50A01300A168A1142220A128A15BC
:101C28005B30F5008030F6000A168A111C220A1271
:101C38008A151A3083120313D200F730D100D10B62
:101C4800232ED20B232E282E83120313B7017C30A8
:101C5800F0000230F1007D300A168A11F8210A12CC
:101C68008A157D0883120313D10004300310D10CA8
:101C7800FF3E031D3A2E51080739303EBD007D084E
:101C88000F39303EBE00BF010230F50001300A16A0
:101C98008A1142220A128A153D30F5000030F600FA
:101CA8000A168A111C220A128A150D308312031390
:101CB800D200FB30D100D10B5F2ED20B5F2E023049
:101CC800F50003300A168A1142220A128A15DD30FD
:101CD800F5008030F6000A168A111C220A128A15AD
:101CE8007C0883120313D10004300310D10CFF3E8B
:101CF800031D792E51080739303EBD007C080F3985
:101D0800303EBE00BF010230F50004300A168A11C9
:101D180042220A128A153D30F5000030F6000A16F4
:101D28008A111C220A128A150D3083120313D2005D
:101D3800FB30D100D10B9E2ED20B9E2E83120313A3
:101D48003708031DA82EA92EC52E0230F5000E3027
:101D58000A168A1142220A128A15BB30F500803011
:101D6800F6000A168A111C220A128A150D308312EF
:101D78000313D200FB30D100D10BC02ED20BC02EE2
:101D8800D72E0230F5000E300A168A1142220A12A6
:101D98008A15B730F5008030F6000A168A111C2221
:101DA8000A128A15BA2E83120313051DDC2EDD2EA6
:101DB800EF2E3708013AB700043083120313D3001B
:101DC8008E30D2001130D100D10BE82ED20BE82E84
:101DD800D30BE82EEF2E83120313051CF42EF52ED9
:101DE8002D2F3708031DF92EFA2E1B2F7D080A16F2
:101DF8008A1139240A128A15FB007C08F000023087
:101E0800F1007B080A168A119E210A128A150430ED
:101E180083120313D3008E30D2001130D100D10BBE
:101E2800132FD20B132FD30B132F1A2F2D2F7C0800
:101E38000A168A1114230A128A15FB007B08F0007F
:101E48000230F1007D080A168A119E210A128A15AD
:101E58000B2F83120313851C322F332F6B2F370858
:101E6800031D372F382F592F7D080A168A11A422EF
:101E78000A128A15FB007C08F0000230F1007B088A
:101E88000A168A119E210A128A1504308312031336
:101E9800D3008E30D2001130D100D10B512FD20B8C
:101EA800512FD30B512F582F6B2F7C080A168A11EC
:101EB800DC220A128A15FB007B08F0000230F100D0
:101EC8007D080A168A119E210A128A15492F831243
:101ED8000313061C702F712F2B2E0730B600043009
:101EE80083120313D3008E30D2001130D100D10BEE
:101EF8007B2FD20B7B2FD30B7B2F822F9C2F360867
:101F0800D100D2015208003A03198B2F9C2F510897
:101F1800023A0319FA2F013A0319FD2F073A031958
:101F2800B62A013A03194D2C033A0319F12D9C2FB7
:101F38000730831203133606031DA32FA42FA52FE2
:101F4800AD2F83120313061CAA2FAD2F0A168A1170
:101F58008C2E053083120313D3000F30D200F030DB
:101F6800D100D10BB52FD20BB52FD30BB52F000055
:101F7800013083120313D1005108B6070830360226
:101F8800031CC72FCA2F0A168A116E2E1A30831205
:101F98000313D200F730D100D10BD02FD20BD02FA2
:101FA800D52F0A168A1113210A128A151A3083129C
:101FB8000313D200F730D100D10BE02FD20BE02F62
:101FC800E52F83120313B601B501B701B601FD3041
:101FD800D10051088B055708FF0056088A0055089C
:101FE8008400540E8300FE0E7E0E09000A128A1128
:101FF8002C2D0A128A11DA2FFF1B0A2883137F1847
:1020080083170008840A0319FF0A080010308A00A1
:102018000408840A8207003452346934653467340A
:102028006F34203463346F346D3470346C346534F9
:102038007434613464346F3400344534643469343E
:1020480074346134723420347334653467347534CD
:102058006E3464346F347334003445346434693412
:1020680074346134723420346D3469346E347534A8
:1020780074346F34733400344434653473346334E3
:1020880061346E34733461346E3464346F342E3496
:102098002E342E34003448346F3472346134203492
:1020A80064346534203452346934653467346F34A9
:1020B8000034453464346934743420345234693417
:1020C800653467346F342034313400344534643433
:1020D80069347434203452346934653467346F3465
:1020E8002034323400344534643469347434203450
:1020F8006434693461342034733465346D340034A5
:102108004534643469347434613472342034683446
:102118006F34723461347334003445346434693450
:10212800743461347234203461346E3469346F34F9
:10213800003445346434693474346134723420347E
:102148006434693461340034453464346934743433
:102158006134723420346D3465347334003452344D
:102168006534673461346E3464346F342E342E34FD
:102178002E3400344F344E34203400344F34463437
:10218800463400344D3449344E34003448345234E3
:102198005334003453344134423400344D344934D8
:1021A8004534003456344934453400344A345534BF
:1021B8004534003444344F344D3400344C345534B1
:1021C8004E3400344D3441345234003479340034C0
:0421D8003A34003461
:1021E20083120313D800580893008C1DF928FA288B
:1021F200F6288C110800831603138715071613306F
:102202009300283083120313940008008B170B16D7
:10221200FD3083120313D80058088B05831603136D
:102222000117080001300A168A11BF230A168A1103
:102232000630F6003030F500F50B1D29F60B1D298E
:102242000000080001300A168A1178240A168A1141
:10225200063083120313DE002F30DD00DD0B2F2941
:10226200DE0B2F29342908008316031789018316F0
:10227200031306148316031788010730831203130E
:10228200D800580883160313850408007E088A00C4
:102292007F0882000A168A1147210A168A118000D5
:1022A200840A04087D0603190034FF0A0319FE0A92
:1022B2004B29F00070088312031393008C1D6229CE
:1022C20063295F298C1183160313111F69296A2957
:1022D2006F29111511196E296F296B2908008312B4
:1022E2000313D800580893008C1D78297929752981
:1022F2008C1183160313111F7F298029852911153B
:102302001119842985298129080083120313DA000F
:102312005903031D8D298E2993295A08A4005808B0
:10232200A5009D2902305906031D982999299D2946
:102332005A08A2005808A3000800F2007103031D06
:10234200A329A429AB29720883120313A4007008DD
:10235200A500B72902307106031DB029B129B7299A
:10236200720883120313A2007008A3000800F2008F
:102372000A168A15B3270A168A11D0300A168A114C
:102382005A210A168A1171080A168A15BE270A16D8
:102392008A1172080A168A15BE270A168A110A16A7
:1023A2008A1577270A168A11080083120313DA00A6
:1023B2005903031DDD29DE29E8295A08840024086F
:1023C200831380005808840025088000F729023012
:1023D2005906031DED29EE29F7295A08840022081F
:1023E2008313800058088400230880000800F2004C
:1023F2007103031DFD29FE290A2A72088400831233
:1024020003132408831380007008840025088000C9
:102412001B2A02307106031D0F2A102A1B2A72087A
:10242200840083120313220883138000700884003F
:10243200230880000800312A7608FF00750884000E
:102442000A168A1100200A168A110A168A11FC231A
:102452000A168A110130F5070318F60A0030F6074A
:10246200760883120313FF00750884000A168A1186
:1024720000200A168A11003A031D402A412A1D2A09
:102482000800F8004F2AF901652A4030F900652A50
:102492001430F900652A5430F900652A7508F600EF
:1024A200F7017708003A0319572A652A7608013A94
:1024B2000319442A033A0319462A013A0319492AFD
:1024C200073A03194C2A652A7808FF3EF600760877
:1024D200F907790880380A168A11BF230A168A1169
:1024E200080083120313E000812AE101972A403099
:1024F200E100972A1430E100972A5430E100972A2C
:102502005D08DE00DF015F08003A0319892A972A75
:102512005E08013A0319762A033A0319782A013A26
:1025220003197B2A073A03197E2A972A6008FF3E7D
:10253200DE005E08E107610880380A168A117824F5
:102542000A168A110800F2007208F0000430031023
:10255200F00CFF3E031DA82A70080F3983120313E3
:10256200A10072080F39A0002008031DB92ABA2A57
:10257200C92A0930A00021080319C02AC12AC42A85
:102582000130A102CB2A0230A1000330A000CB2AE5
:102592000130A0020F302005F0002108F1000330C5
:1025A2000310F10DFF3E031DD12A0310710D7004BB
:1025B200F20072080800F2007208F0000430031002
:1025C200F00CFF3E031DE02A70080F39831203133B
:1025D200A10072080F39A0002008031DF12AF22A77
:1025E200012B0930A00021080319F82AF92AFC2A34
:1025F2000130A102032B0530A1000930A000032BFA
:102602000130A0020F302005F0002108F100033054
:102612000310F10DFF3E031D092B0310710D700411
:10262200F20072080800F2007208F0000430031091
:10263200F00CFF3E031D182B70080F398312031391
:10264200A10072080F39A0000130F0007008A00745
:102652000A302002031C2E2B2F2B3C2BA001013011
:10266200F0007008A10706302102031C392B3A2B17
:102672003C2BA001A1010F302005F0002108F10040
:1026820003300310F10DFF3E031D422B0310710DA9
:102692007004F2007208080083120313DA005A0869
:1026A200D80004300310D80CFF3E031D532B5808EA
:1026B2000F39A1005A080F39A0000130D80058087C
:1026C200A0070A302002031C672B682B752BA00180
:1026D2000130D8005808A10706302102031C722BD2
:1026E200732B752BA001A1010F302005D800210802
:1026F200D90003300310D90DFF3E031D7B2B0310BD
:10270200590D5804DA005A080800343083120313B2
:10271200DE00F130DD00DD0B8C2BDE0B8C2B333039
:102722000A168A1178240A168A1132300A168A1178
:1027320078240A168A1128300A168A1178240A1671
:102742008A110C300A168A1178240A168A11063068
:102752000A168A1178240A168A1101300A168A1179
:1027620078240A168A11083083120313DE00C93056
:10277200DD00DD0BBA2BDE0BBA2B0800F20072086B
:10278200F039F3007208F10003300310F10DFF3E3F
:10279200031DC62B0310710DF039F4000A168A15B9
:1027A200B3270A168A114E300A168A115A210A16BE
:1027B2008A1173080C380A168A15BE270A168A115E
:1027C200730808380A168A15BE270A168A11740871
:1027D2000C380A168A15BE270A168A117408083898
:1027E2000A168A15BE270A168A110A168A1577272B
:1027F2000A168A110800F2007208F039F300720812
:10280200F10003300310F10DFF3E031D032C0310F2
:10281200710DF039F4000A168A15B3270A168A11C7
:102822004E300A168A115A210A168A1173080D3877
:102832000A168A15BE270A168A11730809380A165B
:102842008A15BE270A168A1174080D380A168A15C7
:10285200BE270A168A11740809380A168A15BE2775
:102862000A168A110A168A1577270A168A1108008B
:10287200F2007208F00004300310F00CFF3E031D5A
:102882003D2C70080F3983120313A10072080F390F
:10289200A0000130F0007008A0070A302002031CDB
:1028A200532C542C592CA0010130F0007008A107C0
:1028B20002302106031D5E2C5F2C672C043020029F
:1028C200031C642C652C672CA101A0010F3020058C
:1028D200F0002108F10003300310F10DFF3E031D4B
:1028E2006D2C0310710D7004F2007208080083123F
:1028F2000313DA005A08F039DB005A08D900033012
:102902000310D90DFF3E031D812C0310590DF03920
:10291200DC000A168A15F5270A168A114E300A16A5
:102922008A1170210A168A11831203135B080C386C
:102932000A168A11F1200A168A11831203135B0800
:1029420008380A168A11F1200A168A118312031313
:102952005C080C380A168A11F1200A168A118312B1
:1029620003135C0808380A168A11F1200A168A1124
:102972000A168A157F270A168A1108008312031382
:10298200DA005A08F039DB005A08D9000330031084
:10299200D90DFF3E031DC82C0310590DF039DC0080
:1029A2000A168A15F5270A168A114E300A168A1156
:1029B20070210A168A11831203135B080D380A1656
:1029C2008A11F1200A168A11831203135B0809384F
:1029D2000A168A11F1200A168A11831203135C085F
:1029E2000D380A168A11F1200A168A11831203136E
:1029F2005C0809380A168A11F1200A168A110A1689
:102A02008A157F270A168A110800F3000A168A150A
:102A1200B3270A168A11D0300A168A115A210A16C9
:102A22008A1100300A168A15BE270A168A110A165A
:102A32008A15D4270A168A11D1300A168A115A2108
:102A42000A168A11730884000A168A15C9270A16FB
:102A52008A11831380000A168A158F270A168A1193
:102A6200710884000A168A15C9270A168A11831367
:102A720080000A168A158F270A168A1172088400A6
:102A82000A168A15C9270A168A11831380000A16A4
:102A92008A1598270A168A110A168A1577270A169E
:102AA2008A11080083120313DB000A168A15F52720
:102AB2000A168A11D0300A168A1170210A168A1152
:102AC20000300A168A11F1200A168A110A168A158E
:102AD200EA270A168A11D1300A168A1170210A16BB
:102AE2008A11831203135B0884000A168A15DF27F2
:102AF2000A168A11831380000A168A15A1270A165C
:102B02008A1183120313590884000A168A15DF27D3
:102B12000A168A11831380000A168A15A1270A163B
:102B22008A11831203135A0884000A168A15DF27B2
:102B32000A168A11831380000A168A15AA270A1612
:102B42008A110A168A157F270A168A110800F400CC
:102B52000A168A15B3270A168A11D0300A168A1164
:102B62005A210A168A1103300A168A15BE270A1636
:102B72008A110A168A15D4270A168A11D1300A1622
:102B82008A115A210A168A11740884000A168A15B3
:102B9200C9270A168A11831380000A168A158F27FD
:102BA2000A168A11710884000A168A15C9270A169C
:102BB2008A11831380000A168A158F270A168A1132
:102BC200720884000A168A15C9270A168A11831305
:102BD20080000A168A158F270A168A117308840044
:102BE2000A168A15C9270A168A11831380000A1643
:102BF2008A1598270A168A110A168A1577270A163D
:102C02008A11080083120313DC000A168A15F527BD
:102C12000A168A11D0300A168A1170210A168A11F0
:102C220003300A168A11F1200A168A110A168A1529
:102C3200EA270A168A11D1300A168A1170210A1659
:102C42008A11831203135C0884000A168A15DF278F
:102C52000A168A11831380000A168A15A1270A16FA
:102C62008A1183120313590884000A168A15DF2772
:102C72000A168A11831380000A168A15A1270A16DA
:102C82008A11831203135A0884000A168A15DF2751
:102C92000A168A11831380000A168A15A1270A16BA
:102CA2008A11831203135B0884000A168A15DF2730
:102CB2000A168A11831380000A168A15AA270A1691
:102CC2008A110A168A157F270A168A1108008B1C98
:102CD2006B2E6E2E0A128A15EB2F1A3083120313F3
:102CE200D200F730D100D10B742ED20B742E792E74
:102CF2000A168A1113210A168A111A308312031333
:102D0200D200F730D100D10B842ED20B842E892E23
:102D12000A128A15A52F3603031D902E912EE52F38
:102D22004530F000F101F10A46300A168A11F82105
:102D32000A168A114330F0000230F10044300A16BC
:102D42008A11F8210A168A11F501F50A01300A16CC
:102D52008A1142220A168A114030F5008030F600AC
:102D62000A168A111C220A168A111A3083120313B8
:102D7200D200F730D100D10BBC2ED20BBC2EC12E0B
:102D82001A3083120313D200F730D100D10BC72EB1
:102D9200D20BC72ECC2E831203134608D100043067
:102DA2000310D10CFF3E031DD12E51080739303ECE
:102DB200BD0046080F39303EBE00BF010230F500AB
:102DC20001300A168A1142220A168A113D30F50094
:102DD2000030F6000A168A111C220A168A110D30DA
:102DE20083120313D200FB30D100D10BF62ED20B8B
:102DF200F62E0230F50003300A168A1142220A1614
:102E02008A11DD30F5008030F6000A168A111C2284
:102E12000A168A11831203134508D10004300310E5
:102E2200D10CFF3E031D102F51080739303EBD0063
:102E320045080F39303EBE00BF010230F5000430B4
:102E42000A168A1142220A168A113D30F500003014
:102E5200F6000A168A111C220A168A110D308312F4
:102E62000313D200FB30D100D10B352FD20B352FFB
:102E72000230F50007300A168A1142220A168A1118
:102E8200DB30F5008030F6000A168A111C220A1681
:102E92008A110D3083120313D200FB30D100D10B03
:102EA200502FD20B502F831203134408D100043049
:102EB2000310D10CFF3E031D592F51080739303E34
:102EC200BD0044080F39303EBE00BF010230F5009C
:102ED20009300A168A1142220A168A113D30F5007B
:102EE2000030F6000A168A111C220A168A110D30C9
:102EF20083120313D200FB30D100D10B7E2FD20BF1
:102F02007E2F0230F5000B300A168A1142220A1671
:102F12008A11DD30F5008030F6000A168A111C2273
:102F22000A168A11831203134308D10004300310D6
:102F3200D10CFF3E031D982F51080739303EBD00CA
:102F420043080F39303EBE00BF010230F5000C309D
:102F52000A168A1142220A168A113D30F500003003
:102F6200F6000A168A111C220A168A110D308312E3
:102F72000313D200FB30D100D10BBD2FD20BBD2FDA
:102F8200043083120313D3008E30D2001130D100EB
:102F9200D10BC92FD20BC92FD30BC92FD02F83121C
:102FA2000313061CD52FD62FD92F0230B600E52FDA
:102FB2000130D1005108B7070F303702031CE22F4E
:102FC200E32FC12F0A30B600033083120313D3005C
:102FD2000830D2007630D100D10BED2FD20BED2F7D
:102FE200D30BED2F00000D30831203133702031CA5
:0E2FF200FD2F0A128A11292D0A128A15832F2B
:103E8200831203132708080083120313260808006D
:103E9200831203132708080083120313260808005D
:103EA200F000700883120313A7000800F0007008E6
:103EB20083120313A600080083120313D8005808C4
:103EC200A700080083120313D8005808A6000800B0
:103ED2008316031388018312031388010800CF3469
:103EE200D334D734C334CB34C734BF34831603132B
:103EF200111511197D2F7E2F7A2F080083160313B7
:103F020011151119852F862F822F08006400800158
:103F1200840A0406031900340406882F8316031347
:103F220091121116111A962F972F932F08008316AC
:103F3200031391161116111A9F2FA02F9C2F080000
:103F42008316031391121116111AA82FA92FA52F48
:103F520008008316031391161116111AB12FB22FEE
:103F6200AE2F08008316031311141118B92FBA2F9C
:103F7200B62F831203138C110800F000700883120D
:103F8200031393008C1DC62FC72FC32F8C1108005B
:103F9200831603139115141CCF2FD02FCC2F83120D
:103FA2000313130808008316031391149118DA2FD0
:103FB200DB2FD72F831203138C11080083160313F0
:103FC2009115141CE52FE62FE22F83120313130819
:103FD20008008316031391149118F02FF12FED2F7F
:103FE200831203138C110800831603131114111882
:103FF200FB2FFC2FF82F831203138C110800FF3FB5
:06400200FF3FFF3FFF3FFE
:04400E00F220FF3F5E
:00000001FF
