:060000000A128A11FC2F18
:100E8C0083160313111511194C2F4D2F492F0800E0
:100E9C008316031391161116111A552F562F522F14
:100EAC000800FE30F00070088316031788058316BF
:100EBC00031305140800831603139115141C672FD4
:100ECC00682F642F8312031313080800831603136F
:100EDC0011141118722F732F6F2F831203138C118F
:100EEC000800831603138715071627309300283044
:100EFC008312031394000800E030F000700883168E
:100F0C0003138805E030F000700883120313880582
:100F1C000800F00070088312031393008C1D972FA8
:100F2C00982F942F8C1183160313111F9E2F9F2F14
:100F3C00A42F11151119A32FA42FA02F08000A12EA
:100F4C008A1182270A128A110A128A1157270A1249
:100F5C008A110A128A1177270A128A118312031333
:100F6C00051CB92FBA2FCA2F1030F1007108880652
:100F7C000330F3000830F2007730F100F10BC42F8E
:100F8C00F20BC42FF30BC42F831203130518CF2FAE
:100F9C00D02FB42F0A128A116C270A128A11A13091
:100FAC000A128A118F270A128A110A128A116127D2
:100FBC000A128A11F4000A128A114E270A128A1197
:100FCC000A128A1146270A128A1174088312031313
:100FDC0088003430F200F130F100F10BF32FF20BFA
:100FEC00F32FF82FB42F0A128A11002883010A124A
:040FFC008A11A52F82
:08400000FF3FFF3FFF3FFF3FC0
:04400E00F220FF3F5E
:00000001FF
